:020000040800F2
:100000007806002089010008C10600086D04000878
:10001000BD06000843020008070B000800000000AE
:10002000000000000000000000000000D9070008E8
:100030004702000800000000C3060008C5080008C9
:10004000A3010008A3010008A3010008A301000800
:10005000A3010008A3010008A3010008A3010008F0
:10006000A3010008A3010008A3010008A3010008E0
:10007000A3010008A3010008A3010008A3010008D0
:10008000A3010008A3010008A3010008A3010008C0
:10009000A3010008A3010008A3010008A3010008B0
:1000A000A3010008A3010008A3010008A3010008A0
:1000B000A3010008A3010008A3010008A301000890
:1000C000A3010008A3010008A3010008A301000880
:1000D000A3010008A3010008A3010008A301000870
:1000E000A3010008A3010008A301000800F002F822
:1000F00000F03AF80AA090E8000C82448344AAF188
:100100000107DA4501D100F02FF8AFF2090EBAE885
:100110000F0013F0010F18BFFB1A43F0010318473B
:10012000440A0000640A0000103A24BF78C878C16D
:10013000FAD8520724BF30C830C144BF04680C60ED
:10014000704700000023002400250026103A28BF35
:1001500078C1FBD8520728BF30C148BF0B60704739
:100160001FB51FBD10B510BD00F031F81146FFF7E7
:10017000F7FF00F0CBFC00F04FF803B4FFF7F2FFFD
:1001800003BC00F057F800000948804709480047C1
:10019000FEE7FEE7FEE7FEE7FEE7FEE7FEE7FEE737
:1001A000FEE7FEE704480549054A064B7047000094
:1001B000C9080008ED00000878000020780600203B
:1001C000780200207802002070477047704775461B
:1001D00000F02CF8AE4605006946534620F00700B3
:1001E000854618B020B5FFF7DDFFBDE820404FF091
:1001F00000064FF000074FF000084FF0000B21F011
:100200000701AC46ACE8C009ACE8C009ACE8C009DD
:10021000ACE8C0098D46704710B50446AFF30080C6
:100220002046BDE81040FFF7A8BF00000048704717
:100230001400002001491820ABBEFEE72600020092
:10024000704700BFFEE7704700B5034603E04FF478
:100250007A7000F005F8181EA3F10103F7D100BD74
:1002600000EBC001C9004FF0E02251610021916113
:100270000521116100BF4FF0E021096901F48031CF
:100280000029F8D004214FF0E022116170470000EE
:1002900070B505460C46164601211F4800F044F98A
:1002A00000BF1E491C4800F0E3F80128F9D10022E4
:1002B000A021194800F0C6F900BF1949164800F0FE
:1002C000D7F80128F9D12946134800F0C4F900BF36
:1002D0001349891E104800F0CBF80128F8D10CE032
:1002E00021780D4800F0B7F900BF0D49891C0A4874
:1002F00000F0BEF80128F8D1641C301EA6F10101FF
:10030000CEB2EDD10121044800F01AF905A10A4846
:1003100000F0E5FB70BD0000005400400100030048
:10032000820007005472616E7366657220537563B4
:10033000636573730A000000003801402DE9F04145
:10034000024600250026002000230024002791F803
:1003500003C00CF00F0591F803C00CF0100CBCF1B9
:10036000000F03D091F802C04CEA050591F800C0D7
:10037000BCF1000F31D0146800202BE04FF0010CCD
:100380000CFA00F3B1F800C00CEA03069E4220D13B
:1003900083004FF00F0C0CFA03F7BC4305FA03FC83
:1003A0004CEA040491F803C0BCF1280F06D14FF0C9
:1003B000010C0CFA00FCC2F814C00AE091F803C06A
:1003C000BCF1480F05D14FF0010C0CFA00FCC2F84B
:1003D00010C0401C0828D1D31460B1F800C0BCF193
:1003E000FF0F34DD546800202EE000F1080C4FF0C0
:1003F000010808FA0CF3B1F800C00CEA03069E42AB
:1004000021D183004FF00F0C0CFA03F7BC4305FA1F
:1004100003FC4CEA040491F803C0BCF1280F05D199
:1004200000F1080C08FA0CF8C2F8148091F803C027
:10043000BCF1480F07D100F1080C4FF0010808FA91
:100440000CF8C2F81080401C0828CED35460BDE8D8
:10045000F08102460020D3680B400BB1012000E080
:1004600000207047416170470161704700BFFEE79F
:1004700070B502460024002500230020958A138BC6
:100480001B0445EA030626F07F4404EA01068E4277
:1004900001D1012000E0002070BD21B1028842F0AE
:1004A0000102028004E002884FF6FE731A400280C7
:1004B0007047000000B585B00121480500F002F941
:1004C0000121082000F00EF9C020ADF800001C202A
:1004D0008DF8030003208DF8020069460F48FFF7EE
:1004E0002DFF4FF48060ADF80E000001ADF8100054
:1004F0000B4801904BF6FF70ADF80A000020ADF8F4
:1005000008007F20ADF80C0001A9064800F024F88F
:1005100001210448FFF7C1FF05B000BD000C0140F8
:10052000801A06000054004021B1028842F4807213
:10053000028004E002884FF6FF631A400280704791
:1005400021B1028842F40072028004E002884FF672
:10055000FF531A40028070472DE9F04385B00446EE
:100560000D460026B1460427DFF8CC80A6884FF65A
:10057000C0700640684600F0C5F8DDF808802F48D6
:10058000B8FBF0F01FFA80F946EA0906A680208839
:100590004FF6FE71084020800026294928688842CD
:1005A0000CD828684000B8FBF0F087B2042F00DABE
:1005B00004273E4309F10100208427E0E8884BF638
:1005C000FF71884206D1286800EB4000B8FBF0F0CC
:1005D00087B209E0286800EBC00101EB0010B8FB0E
:1005E000F0F087B247F48047C7F30B0008B947F033
:1005F000010747F4004006434FF4967009FB00F0F2
:100600004FF47A7190FBF1F0401C2084A68320887F
:1006100040F00100208026884FF6F5300640A8887B
:100620006989084306432680A889298908432081CF
:1006300005B0BDE8F083000000127A0040420F00D0
:10064000A086010012B141F0010102E04FF6FE73F5
:1006500019400182704701827047000008B50121EE
:10066000082000F03FF810208DF8030040F602400B
:10067000ADF8000003208DF8020069460448FFF73A
:100680005DFE40F602410248FFF7EEFE08BD0000A5
:10069000000C014010B5044621460748FFF7D9FE7B
:1006A00020B921460448FFF7DFFE03E02146024857
:1006B000FFF7D8FE10BD0000000C014000BFFEE7B0
:1006C0007047704729B1064AD2690243044BDA6188
:1006D00004E0034AD2698243014BDA6170470000AB
:1006E0000010024029B1064A92690243044B9A6104
:1006F00004E0034A92698243014B9A61704700000B
:100700000010024030B500210022002400232D4DAE
:100710006D6805F00C0121B1042905D0082923D109
:1007200005E0294D056022E0274D05601FE0254DBD
:100730006D6805F47012234D6D6805F48034022550
:1007400005EB92421CB9214D554305600BE01D4D50
:100750006D6805F400351DB11C4D5543056002E080
:10076000194D5543056002E0174D056000BF00BFFD
:10077000144D6D6805F0F0010909154D6B5C0568B5
:10078000DD4045600F4D6D6805F4E061090A104DCC
:100790006B5C4568DD4085600A4D6D6805F460510D
:1007A000C90A0B4D6B5C4568DD40C560054D6D6841
:1007B00005F44041890B074D6B5CC568B5FBF3F54B
:1007C000056130BD0010024000127A0000093D00B2
:1007D0000000002010000020704710B500F002F863
:1007E00010BD00000CB50020019000903348006857
:1007F00040F480303149086000BF3048006800F4A0
:10080000003000900198401C0190009818B90198A0
:10081000B0F5A06FF1D12948006800F4003010B1A4
:100820000120009001E0002000900098012843D1B1
:100830002348006840F0100021490860084600681D
:1008400020F0030008600846006840F002000860DD
:100850001A48406819494860084640684860084698
:10086000406840F4806048600846406820F47C108E
:1008700048600846406840F4E81048600846006850
:1008800040F08070086000BF0C48006800F0007005
:100890000028F9D00948406820F003000749486063
:1008A0000846406840F00200486000BF03484068C6
:1008B00000F00C000828F9D10CBD00000010024027
:1008C000002002407047000010B51348006840F057
:1008D00001001149086008464068104908400E4967
:1008E0004860084600680E4908400B490860084601
:1008F000006820F4802008600846406820F4FE006C
:1009000048604FF41F008860FFF767FF4FF00060FA
:100910000449086010BD0000001002400000FFF80C
:10092000FFFFF6FE08ED00E000B585B001210420D0
:10093000FFF7D8FE01218803FFF7D4FE18208DF8B9
:1009400013004FF40070ADF8100003208DF8120072
:1009500004A91448FFF7F2FC04208DF813000002EC
:10096000ADF8100003208DF8120004A90D48FFF720
:10097000E5FC4FF4E13000900020ADF80400ADF844
:100980000600ADF80800ADF80C000C20ADF80A0028
:100990006946054800F024F80121034800F006F8F4
:1009A00005B000BD000801400038014021B1828936
:1009B00042F40052828104E082894DF6FF731A40AE
:1009C0008281704702460020B1F5007F00D100BF50
:1009D00013880B400BB1012000E00020704700009D
:1009E0002DE9F04786B005460E460024A24600BF1A
:1009F000A1460027B08900B100BF2F462C8A4CF6D3
:100A0000FF700440F08804432C82AC894EF6F3104A
:100A10000440B08831890843718908430443AC819C
:100A2000AC8A4FF6FF400440B0890443AC8201A871
:100A3000FFF768FE1F48874202D1DDF810A001E0F1
:100A4000DDF80CA0A88900F4004040B10AEBCA0010
:100A500000EB0A1031684900B0FBF1F807E00AEB3F
:100A6000CA0000EB0A1031688900B0FBF1F864207D
:100A7000B8FBF0F004012009642101FB1089A8896A
:100A800000F4004040B1322000EBC900B0FBF1F0AF
:100A900000F00700044308E0322000EB0910642155
:100AA000B0FBF1F000F00F0004432C8106B0BDE86C
:100AB000F08700000038014070B504460D46294615
:100AC000204600F008F800BF80212046FFF77AFF9B
:100AD0000028F9D070BDC1F308028280704770B55C
:100AE00005460C4604E014F8011B2846FFF7E4FF16
:100AF00020780028F7D100BF40212846FFF762FF89
:100B00000028F9D070BD00BFFEE700000EB50E4A08
:100B100007CA8DE80700FFF7CDFCFFF705FFFFF7D9
:100B20009DFD0AA10B48FFF7DAFF0822694610462F
:100B3000FFF7AEFB06E00220FFF7ACFD4FF4FA70C2
:100B4000FFF782FBF7E70000580B0008537461724F
:100B5000740000000038014000010203040506078C
:100B600008000000840B00080000002014000000B2
:100B700028010008980B00081400002064060000FB
:100B80004401000800000000010203040102030404
:080B900006070809020406082B
:04000005080000ED02
:00000001FF
